{
  "_format": "hh-sol-artifact-1",
  "contractName": "RainshowerContract",
  "sourceName": "contracts/RainshowerContract.sol",
  "abi": [
    {
      "inputs": [
        {
          "internalType": "address",
          "name": "_moduleAddress",
          "type": "address"
        },
        {
          "internalType": "uint64",
          "name": "_expiry",
          "type": "uint64"
        },
        {
          "internalType": "bytes",
          "name": "_data",
          "type": "bytes"
        }
      ],
      "stateMutability": "payable",
      "type": "constructor"
    },
    {
      "inputs": [],
      "name": "close",
      "outputs": [],
      "stateMutability": "payable",
      "type": "function"
    },
    {
      "inputs": [
        {
          "internalType": "uint256",
          "name": "_extraMargin",
          "type": "uint256"
        }
      ],
      "name": "fundWithMarginAndOpen",
      "outputs": [],
      "stateMutability": "payable",
      "type": "function"
    },
    {
      "inputs": [],
      "name": "fundWithTokens",
      "outputs": [],
      "stateMutability": "payable",
      "type": "function"
    }
  ],
  "bytecode": "0x60806040526040516104ed3803806104ed8339810160408190526100229161009f565b600380546001600160a01b0319166001600160a01b03851617905560046100498282610229565b5050600280546001600160401b0390921661010002610100600160481b031990921691909117905550600080546001600160a01b031916331790556102e8565b634e487b7160e01b600052604160045260246000fd5b6000806000606084860312156100b457600080fd5b83516001600160a01b03811681146100cb57600080fd5b602085810151919450906001600160401b0380821682146100eb57600080fd5b60408701519194508082111561010057600080fd5b818701915087601f83011261011457600080fd5b81518181111561012657610126610089565b604051601f8201601f19908116603f0116810190838211818310171561014e5761014e610089565b816040528281528a8684870101111561016657600080fd5b600093505b82841015610188578484018601518185018701529285019261016b565b60008684830101528096505050505050509250925092565b600181811c908216806101b457607f821691505b6020821081036101d457634e487b7160e01b600052602260045260246000fd5b50919050565b601f82111561022457600081815260208120601f850160051c810160208610156102015750805b601f850160051c820191505b818110156102205782815560010161020d565b5050505b505050565b81516001600160401b0381111561024257610242610089565b6102568161025084546101a0565b846101da565b602080601f83116001811461028b57600084156102735750858301515b600019600386901b1c1916600185901b178555610220565b600085815260208120601f198616915b828110156102ba5788860151825594840194600190910190840161029b565b50858210156102d85787850151600019600388901b60f8161c191681555b5050505050600190811b01905550565b6101f6806102f76000396000f3fe6080604052600436106100345760003560e01c80631ce7dafb1461003957806343d726d61461004e5780639b5b445e14610056575b600080fd5b61004c610047366004610178565b61005e565b005b61004c6100a6565b61004c6100da565b6100a38160405160240161007491815260200190565b60408051601f198184030181529190526020810180516001600160e01b0316631ed48a5f60e21b179052610108565b50565b6040805160048152602481019091526020810180516001600160e01b0316632b06b75160e01b1790526100d890610108565b565b6040805160048152602481019091526020810180516001600160e01b0316630fdfb93360e31b1790526100d8905b6003546040516000916001600160a01b031690610126908490610191565b600060405180830381855af49150503d8060008114610161576040519150601f19603f3d011682016040523d82523d6000602084013e610166565b606091505b505090508061017457600080fd5b5050565b60006020828403121561018a57600080fd5b5035919050565b6000825160005b818110156101b25760208186018101518583015201610198565b50600092019182525091905056fea26469706673582212208bddfb6d21d2175f45b98ee42ea7add13192c31051d7bea0b559573707fa3de564736f6c63430008100033",
  "linkReferences": {},
  "deployedLinkReferences": {}
}