{
  "_format": "hh-sol-artifact-1",
  "contractName": "PooolToken",
  "sourceName": "contracts/PooolToken/PooolToken.sol",
  "abi": [
    {
      "inputs": [
        {
          "internalType": "string",
          "name": "_name",
          "type": "string"
        },
        {
          "internalType": "string",
          "name": "_symbol",
          "type": "string"
        }
      ],
      "stateMutability": "nonpayable",
      "type": "constructor"
    },
    {
      "inputs": [],
      "name": "Unauthorized",
      "type": "error"
    },
    {
      "anonymous": false,
      "inputs": [
        {
          "indexed": true,
          "internalType": "address",
          "name": "owner",
          "type": "address"
        },
        {
          "indexed": true,
          "internalType": "address",
          "name": "spender",
          "type": "address"
        },
        {
          "indexed": false,
          "internalType": "uint256",
          "name": "amount",
          "type": "uint256"
        }
      ],
      "name": "Approval",
      "type": "event"
    },
    {
      "anonymous": false,
      "inputs": [
        {
          "indexed": true,
          "internalType": "address",
          "name": "from",
          "type": "address"
        },
        {
          "indexed": true,
          "internalType": "address",
          "name": "to",
          "type": "address"
        },
        {
          "indexed": false,
          "internalType": "uint256",
          "name": "amount",
          "type": "uint256"
        }
      ],
      "name": "Transfer",
      "type": "event"
    },
    {
      "inputs": [],
      "name": "DOMAIN_SEPARATOR",
      "outputs": [
        {
          "internalType": "bytes32",
          "name": "",
          "type": "bytes32"
        }
      ],
      "stateMutability": "view",
      "type": "function"
    },
    {
      "inputs": [
        {
          "internalType": "address",
          "name": "",
          "type": "address"
        },
        {
          "internalType": "address",
          "name": "",
          "type": "address"
        }
      ],
      "name": "allowance",
      "outputs": [
        {
          "internalType": "uint256",
          "name": "",
          "type": "uint256"
        }
      ],
      "stateMutability": "view",
      "type": "function"
    },
    {
      "inputs": [
        {
          "internalType": "address",
          "name": "spender",
          "type": "address"
        },
        {
          "internalType": "uint256",
          "name": "amount",
          "type": "uint256"
        }
      ],
      "name": "approve",
      "outputs": [
        {
          "internalType": "bool",
          "name": "",
          "type": "bool"
        }
      ],
      "stateMutability": "nonpayable",
      "type": "function"
    },
    {
      "inputs": [
        {
          "internalType": "address",
          "name": "",
          "type": "address"
        }
      ],
      "name": "balanceOf",
      "outputs": [
        {
          "internalType": "uint256",
          "name": "",
          "type": "uint256"
        }
      ],
      "stateMutability": "view",
      "type": "function"
    },
    {
      "inputs": [
        {
          "internalType": "address",
          "name": "_to",
          "type": "address"
        },
        {
          "internalType": "uint256",
          "name": "_amount",
          "type": "uint256"
        }
      ],
      "name": "burn",
      "outputs": [],
      "stateMutability": "nonpayable",
      "type": "function"
    },
    {
      "inputs": [],
      "name": "decimals",
      "outputs": [
        {
          "internalType": "uint8",
          "name": "",
          "type": "uint8"
        }
      ],
      "stateMutability": "view",
      "type": "function"
    },
    {
      "inputs": [],
      "name": "governance",
      "outputs": [
        {
          "internalType": "address",
          "name": "",
          "type": "address"
        }
      ],
      "stateMutability": "view",
      "type": "function"
    },
    {
      "inputs": [
        {
          "internalType": "address",
          "name": "_to",
          "type": "address"
        },
        {
          "internalType": "uint256",
          "name": "_amount",
          "type": "uint256"
        }
      ],
      "name": "mint",
      "outputs": [],
      "stateMutability": "nonpayable",
      "type": "function"
    },
    {
      "inputs": [],
      "name": "name",
      "outputs": [
        {
          "internalType": "string",
          "name": "",
          "type": "string"
        }
      ],
      "stateMutability": "view",
      "type": "function"
    },
    {
      "inputs": [
        {
          "internalType": "address",
          "name": "",
          "type": "address"
        }
      ],
      "name": "nonces",
      "outputs": [
        {
          "internalType": "uint256",
          "name": "",
          "type": "uint256"
        }
      ],
      "stateMutability": "view",
      "type": "function"
    },
    {
      "inputs": [
        {
          "internalType": "address",
          "name": "owner",
          "type": "address"
        },
        {
          "internalType": "address",
          "name": "spender",
          "type": "address"
        },
        {
          "internalType": "uint256",
          "name": "value",
          "type": "uint256"
        },
        {
          "internalType": "uint256",
          "name": "deadline",
          "type": "uint256"
        },
        {
          "internalType": "uint8",
          "name": "v",
          "type": "uint8"
        },
        {
          "internalType": "bytes32",
          "name": "r",
          "type": "bytes32"
        },
        {
          "internalType": "bytes32",
          "name": "s",
          "type": "bytes32"
        }
      ],
      "name": "permit",
      "outputs": [],
      "stateMutability": "nonpayable",
      "type": "function"
    },
    {
      "inputs": [],
      "name": "symbol",
      "outputs": [
        {
          "internalType": "string",
          "name": "",
          "type": "string"
        }
      ],
      "stateMutability": "view",
      "type": "function"
    },
    {
      "inputs": [],
      "name": "totalSupply",
      "outputs": [
        {
          "internalType": "uint256",
          "name": "",
          "type": "uint256"
        }
      ],
      "stateMutability": "view",
      "type": "function"
    },
    {
      "inputs": [
        {
          "internalType": "address",
          "name": "to",
          "type": "address"
        },
        {
          "internalType": "uint256",
          "name": "amount",
          "type": "uint256"
        }
      ],
      "name": "transfer",
      "outputs": [
        {
          "internalType": "bool",
          "name": "",
          "type": "bool"
        }
      ],
      "stateMutability": "nonpayable",
      "type": "function"
    },
    {
      "inputs": [
        {
          "internalType": "address",
          "name": "from",
          "type": "address"
        },
        {
          "internalType": "address",
          "name": "to",
          "type": "address"
        },
        {
          "internalType": "uint256",
          "name": "amount",
          "type": "uint256"
        }
      ],
      "name": "transferFrom",
      "outputs": [
        {
          "internalType": "bool",
          "name": "",
          "type": "bool"
        }
      ],
      "stateMutability": "nonpayable",
      "type": "function"
    }
  ],
  "bytecode": "0x60e06040523480156200001157600080fd5b5060405162001edc38038062001edc83398181016040528101906200003791906200029b565b8181601282600090805190602001906200005392919062000179565b5081600190805190602001906200006c92919062000179565b508060ff1660808160ff1660f81b815250504660a0818152505062000096620000e960201b60201c565b60c0818152505050505033600660006101000a81548173ffffffffffffffffffffffffffffffffffffffff021916908373ffffffffffffffffffffffffffffffffffffffff16021790555050506200061a565b60007f8b73c3c69bb8fe3d512ecc4cf759cc79239f7b179b0ffacaa9a75d522b39400f60006040516200011d9190620003cc565b60405180910390207fc89efdaa54c0f20c7adf612882df0950f5a951637e0307cdcb4c672f298b8bc646306040516020016200015e959493929190620003e5565b60405160208183030381529060405280519060200120905090565b82805462000187906200053f565b90600052602060002090601f016020900481019282620001ab5760008555620001f7565b82601f10620001c657805160ff1916838001178555620001f7565b82800160010185558215620001f7579182015b82811115620001f6578251825591602001919060010190620001d9565b5b5090506200020691906200020a565b5090565b5b80821115620002255760008160009055506001016200020b565b5090565b6000620002406200023a846200046b565b62000442565b9050828152602081018484840111156200025957600080fd5b6200026684828562000509565b509392505050565b600082601f8301126200028057600080fd5b81516200029284826020860162000229565b91505092915050565b60008060408385031215620002af57600080fd5b600083015167ffffffffffffffff811115620002ca57600080fd5b620002d8858286016200026e565b925050602083015167ffffffffffffffff811115620002f657600080fd5b62000304858286016200026e565b9150509250929050565b6200031981620004c1565b82525050565b6200032a81620004d5565b82525050565b600081546200033f816200053f565b6200034b8186620004b6565b945060018216600081146200036957600181146200037b57620003b2565b60ff19831686528186019350620003b2565b6200038685620004a1565b60005b83811015620003aa5781548189015260018201915060208101905062000389565b838801955050505b50505092915050565b620003c681620004ff565b82525050565b6000620003da828462000330565b915081905092915050565b600060a082019050620003fc60008301886200031f565b6200040b60208301876200031f565b6200041a60408301866200031f565b620004296060830185620003bb565b6200043860808301846200030e565b9695505050505050565b60006200044e62000461565b90506200045c828262000575565b919050565b6000604051905090565b600067ffffffffffffffff821115620004895762000488620005da565b5b620004948262000609565b9050602081019050919050565b60008190508160005260206000209050919050565b600081905092915050565b6000620004ce82620004df565b9050919050565b6000819050919050565b600073ffffffffffffffffffffffffffffffffffffffff82169050919050565b6000819050919050565b60005b83811015620005295780820151818401526020810190506200050c565b8381111562000539576000848401525b50505050565b600060028204905060018216806200055857607f821691505b602082108114156200056f576200056e620005ab565b5b50919050565b620005808262000609565b810181811067ffffffffffffffff82111715620005a257620005a1620005da565b5b80604052505050565b7f4e487b7100000000000000000000000000000000000000000000000000000000600052602260045260246000fd5b7f4e487b7100000000000000000000000000000000000000000000000000000000600052604160045260246000fd5b6000601f19601f8301169050919050565b60805160f81c60a05160c05161188f6200064d600039600061074e0152600061071a015260006106f4015261188f6000f3fe608060405234801561001057600080fd5b50600436106100f55760003560e01c80635aa6e675116100975780639dc29fac116100665780639dc29fac1461028a578063a9059cbb146102a6578063d505accf146102d6578063dd62ed3e146102f2576100f5565b80635aa6e675146101ee57806370a082311461020c5780637ecebe001461023c57806395d89b411461026c576100f5565b806323b872dd116100d357806323b872dd14610166578063313ce567146101965780633644e515146101b457806340c10f19146101d2576100f5565b806306fdde03146100fa578063095ea7b31461011857806318160ddd14610148575b600080fd5b610102610322565b60405161010f91906114dc565b60405180910390f35b610132600480360381019061012d9190611185565b6103b0565b60405161013f91906113ad565b60405180910390f35b6101506104a2565b60405161015d919061153e565b60405180910390f35b610180600480360381019061017b9190611098565b6104a8565b60405161018d91906113ad565b60405180910390f35b61019e6106f2565b6040516101ab9190611559565b60405180910390f35b6101bc610716565b6040516101c991906113c8565b60405180910390f35b6101ec60048036038101906101e79190611185565b610773565b005b6101f6610808565b6040516102039190611392565b60405180910390f35b61022660048036038101906102219190611033565b61082e565b604051610233919061153e565b60405180910390f35b61025660048036038101906102519190611033565b610846565b604051610263919061153e565b60405180910390f35b61027461085e565b60405161028191906114dc565b60405180910390f35b6102a4600480360381019061029f9190611185565b6108ec565b005b6102c060048036038101906102bb9190611185565b610981565b6040516102cd91906113ad565b60405180910390f35b6102f060048036038101906102eb91906110e7565b610a95565b005b61030c6004803603810190610307919061105c565b610d8e565b604051610319919061153e565b60405180910390f35b6000805461032f906116d7565b80601f016020809104026020016040519081016040528092919081815260200182805461035b906116d7565b80156103a85780601f1061037d576101008083540402835291602001916103a8565b820191906000526020600020905b81548152906001019060200180831161038b57829003601f168201915b505050505081565b600081600460003373ffffffffffffffffffffffffffffffffffffffff1673ffffffffffffffffffffffffffffffffffffffff16815260200190815260200160002060008573ffffffffffffffffffffffffffffffffffffffff1673ffffffffffffffffffffffffffffffffffffffff168152602001908152602001600020819055508273ffffffffffffffffffffffffffffffffffffffff163373ffffffffffffffffffffffffffffffffffffffff167f8c5be1e5ebec7d5bd14f71427d1e84f3dd0314c0f7b2291e5b200ac8c7c3b92584604051610490919061153e565b60405180910390a36001905092915050565b60025481565b600080600460008673ffffffffffffffffffffffffffffffffffffffff1673ffffffffffffffffffffffffffffffffffffffff16815260200190815260200160002060003373ffffffffffffffffffffffffffffffffffffffff1673ffffffffffffffffffffffffffffffffffffffff1681526020019081526020016000205490507fffffffffffffffffffffffffffffffffffffffffffffffffffffffffffffffff81146105de57828161055d9190611611565b600460008773ffffffffffffffffffffffffffffffffffffffff1673ffffffffffffffffffffffffffffffffffffffff16815260200190815260200160002060003373ffffffffffffffffffffffffffffffffffffffff1673ffffffffffffffffffffffffffffffffffffffff168152602001908152602001600020819055505b82600360008773ffffffffffffffffffffffffffffffffffffffff1673ffffffffffffffffffffffffffffffffffffffff168152602001908152602001600020600082825461062d9190611611565b9250508190555082600360008673ffffffffffffffffffffffffffffffffffffffff1673ffffffffffffffffffffffffffffffffffffffff168152602001908152602001600020600082825401925050819055508373ffffffffffffffffffffffffffffffffffffffff168573ffffffffffffffffffffffffffffffffffffffff167fddf252ad1be2c89b69c2b068fc378daa952ba7f163c4a11628f55a4df523b3ef856040516106de919061153e565b60405180910390a360019150509392505050565b7f000000000000000000000000000000000000000000000000000000000000000081565b60007f0000000000000000000000000000000000000000000000000000000000000000461461074c57610747610db3565b61076e565b7f00000000000000000000000000000000000000000000000000000000000000005b905090565b600660009054906101000a900473ffffffffffffffffffffffffffffffffffffffff1673ffffffffffffffffffffffffffffffffffffffff163373ffffffffffffffffffffffffffffffffffffffff16146107fa576040517f82b4290000000000000000000000000000000000000000000000000000000000815260040160405180910390fd5b6108048282610e3f565b5050565b600660009054906101000a900473ffffffffffffffffffffffffffffffffffffffff1681565b60036020528060005260406000206000915090505481565b60056020528060005260406000206000915090505481565b6001805461086b906116d7565b80601f0160208091040260200160405190810160405280929190818152602001828054610897906116d7565b80156108e45780601f106108b9576101008083540402835291602001916108e4565b820191906000526020600020905b8154815290600101906020018083116108c757829003601f168201915b505050505081565b600660009054906101000a900473ffffffffffffffffffffffffffffffffffffffff1673ffffffffffffffffffffffffffffffffffffffff163373ffffffffffffffffffffffffffffffffffffffff1614610973576040517f82b4290000000000000000000000000000000000000000000000000000000000815260040160405180910390fd5b61097d8282610f0f565b5050565b600081600360003373ffffffffffffffffffffffffffffffffffffffff1673ffffffffffffffffffffffffffffffffffffffff16815260200190815260200160002060008282546109d29190611611565b9250508190555081600360008573ffffffffffffffffffffffffffffffffffffffff1673ffffffffffffffffffffffffffffffffffffffff168152602001908152602001600020600082825401925050819055508273ffffffffffffffffffffffffffffffffffffffff163373ffffffffffffffffffffffffffffffffffffffff167fddf252ad1be2c89b69c2b068fc378daa952ba7f163c4a11628f55a4df523b3ef84604051610a83919061153e565b60405180910390a36001905092915050565b42841015610ad8576040517f08c379a0000000000000000000000000000000000000000000000000000000008152600401610acf9061151e565b60405180910390fd5b60006001610ae4610716565b7f6e71edae12b1b97f4d1f60370fef10105fa2faae0126114a169c64845d6126c98a8a8a600560008f73ffffffffffffffffffffffffffffffffffffffff1673ffffffffffffffffffffffffffffffffffffffff1681526020019081526020016000206000815480929190600101919050558b604051602001610b6c969594939291906113e3565b60405160208183030381529060405280519060200120604051602001610b9392919061135b565b6040516020818303038152906040528051906020012085858560405160008152602001604052604051610bc99493929190611497565b6020604051602081039080840390855afa158015610beb573d6000803e3d6000fd5b505050602060405103519050600073ffffffffffffffffffffffffffffffffffffffff168173ffffffffffffffffffffffffffffffffffffffff1614158015610c5f57508773ffffffffffffffffffffffffffffffffffffffff168173ffffffffffffffffffffffffffffffffffffffff16145b610c9e576040517f08c379a0000000000000000000000000000000000000000000000000000000008152600401610c95906114fe565b60405180910390fd5b85600460008373ffffffffffffffffffffffffffffffffffffffff1673ffffffffffffffffffffffffffffffffffffffff16815260200190815260200160002060008973ffffffffffffffffffffffffffffffffffffffff1673ffffffffffffffffffffffffffffffffffffffff16815260200190815260200160002081905550508573ffffffffffffffffffffffffffffffffffffffff168773ffffffffffffffffffffffffffffffffffffffff167f8c5be1e5ebec7d5bd14f71427d1e84f3dd0314c0f7b2291e5b200ac8c7c3b92587604051610d7d919061153e565b60405180910390a350505050505050565b6004602052816000526040600020602052806000526040600020600091509150505481565b60007f8b73c3c69bb8fe3d512ecc4cf759cc79239f7b179b0ffacaa9a75d522b39400f6000604051610de59190611344565b60405180910390207fc89efdaa54c0f20c7adf612882df0950f5a951637e0307cdcb4c672f298b8bc64630604051602001610e24959493929190611444565b60405160208183030381529060405280519060200120905090565b8060026000828254610e5191906115bb565b9250508190555080600360008473ffffffffffffffffffffffffffffffffffffffff1673ffffffffffffffffffffffffffffffffffffffff168152602001908152602001600020600082825401925050819055508173ffffffffffffffffffffffffffffffffffffffff16600073ffffffffffffffffffffffffffffffffffffffff167fddf252ad1be2c89b69c2b068fc378daa952ba7f163c4a11628f55a4df523b3ef83604051610f03919061153e565b60405180910390a35050565b80600360008473ffffffffffffffffffffffffffffffffffffffff1673ffffffffffffffffffffffffffffffffffffffff1681526020019081526020016000206000828254610f5e9190611611565b9250508190555080600260008282540392505081905550600073ffffffffffffffffffffffffffffffffffffffff168273ffffffffffffffffffffffffffffffffffffffff167fddf252ad1be2c89b69c2b068fc378daa952ba7f163c4a11628f55a4df523b3ef83604051610fd3919061153e565b60405180910390a35050565b600081359050610fee816117fd565b92915050565b60008135905061100381611814565b92915050565b6000813590506110188161182b565b92915050565b60008135905061102d81611842565b92915050565b60006020828403121561104557600080fd5b600061105384828501610fdf565b91505092915050565b6000806040838503121561106f57600080fd5b600061107d85828601610fdf565b925050602061108e85828601610fdf565b9150509250929050565b6000806000606084860312156110ad57600080fd5b60006110bb86828701610fdf565b93505060206110cc86828701610fdf565b92505060406110dd86828701611009565b9150509250925092565b600080600080600080600060e0888a03121561110257600080fd5b60006111108a828b01610fdf565b97505060206111218a828b01610fdf565b96505060406111328a828b01611009565b95505060606111438a828b01611009565b94505060806111548a828b0161101e565b93505060a06111658a828b01610ff4565b92505060c06111768a828b01610ff4565b91505092959891949750929550565b6000806040838503121561119857600080fd5b60006111a685828601610fdf565b92505060206111b785828601611009565b9150509250929050565b6111ca81611645565b82525050565b6111d981611657565b82525050565b6111e881611663565b82525050565b6111ff6111fa82611663565b611709565b82525050565b60008154611212816116d7565b61121c8186611594565b9450600182166000811461123757600181146112485761127b565b60ff1983168652818601935061127b565b61125185611574565b60005b8381101561127357815481890152600182019150602081019050611254565b838801955050505b50505092915050565b600061128f82611589565b611299818561159f565b93506112a98185602086016116a4565b6112b281611771565b840191505092915050565b60006112ca6002836115b0565b91506112d582611782565b600282019050919050565b60006112ed600e8361159f565b91506112f8826117ab565b602082019050919050565b600061131060178361159f565b915061131b826117d4565b602082019050919050565b61132f8161168d565b82525050565b61133e81611697565b82525050565b60006113508284611205565b915081905092915050565b6000611366826112bd565b915061137282856111ee565b60208201915061138282846111ee565b6020820191508190509392505050565b60006020820190506113a760008301846111c1565b92915050565b60006020820190506113c260008301846111d0565b92915050565b60006020820190506113dd60008301846111df565b92915050565b600060c0820190506113f860008301896111df565b61140560208301886111c1565b61141260408301876111c1565b61141f6060830186611326565b61142c6080830185611326565b61143960a0830184611326565b979650505050505050565b600060a08201905061145960008301886111df565b61146660208301876111df565b61147360408301866111df565b6114806060830185611326565b61148d60808301846111c1565b9695505050505050565b60006080820190506114ac60008301876111df565b6114b96020830186611335565b6114c660408301856111df565b6114d360608301846111df565b95945050505050565b600060208201905081810360008301526114f68184611284565b905092915050565b60006020820190508181036000830152611517816112e0565b9050919050565b6000602082019050818103600083015261153781611303565b9050919050565b60006020820190506115536000830184611326565b92915050565b600060208201905061156e6000830184611335565b92915050565b60008190508160005260206000209050919050565b600081519050919050565b600081905092915050565b600082825260208201905092915050565b600081905092915050565b60006115c68261168d565b91506115d18361168d565b9250827fffffffffffffffffffffffffffffffffffffffffffffffffffffffffffffffff0382111561160657611605611713565b5b828201905092915050565b600061161c8261168d565b91506116278361168d565b92508282101561163a57611639611713565b5b828203905092915050565b60006116508261166d565b9050919050565b60008115159050919050565b6000819050919050565b600073ffffffffffffffffffffffffffffffffffffffff82169050919050565b6000819050919050565b600060ff82169050919050565b60005b838110156116c25780820151818401526020810190506116a7565b838111156116d1576000848401525b50505050565b600060028204905060018216806116ef57607f821691505b6020821081141561170357611702611742565b5b50919050565b6000819050919050565b7f4e487b7100000000000000000000000000000000000000000000000000000000600052601160045260246000fd5b7f4e487b7100000000000000000000000000000000000000000000000000000000600052602260045260246000fd5b6000601f19601f8301169050919050565b7f1901000000000000000000000000000000000000000000000000000000000000600082015250565b7f494e56414c49445f5349474e4552000000000000000000000000000000000000600082015250565b7f5045524d49545f444541444c494e455f45585049524544000000000000000000600082015250565b61180681611645565b811461181157600080fd5b50565b61181d81611663565b811461182857600080fd5b50565b6118348161168d565b811461183f57600080fd5b50565b61184b81611697565b811461185657600080fd5b5056fea264697066735822122011169d2551ad698f0837b662150b6a8d3fc9c147a40dac2b38fb5c618a58dbe964736f6c63430008040033",
  "linkReferences": {},
  "deployedLinkReferences": {}
}