{
  "_format": "hh-sol-artifact-1",
  "contractName": "RainshowerPoool",
  "sourceName": "contracts/RainshowerPoool.sol",
  "abi": [
    {
      "inputs": [
        {
          "internalType": "address",
          "name": "_riskController",
          "type": "address"
        },
        {
          "internalType": "address",
          "name": "_factory",
          "type": "address"
        }
      ],
      "stateMutability": "nonpayable",
      "type": "constructor"
    },
    {
      "inputs": [],
      "name": "PooolDoesNotExist",
      "type": "error"
    },
    {
      "inputs": [],
      "name": "Risk",
      "type": "error"
    },
    {
      "inputs": [],
      "name": "Unauthorized",
      "type": "error"
    },
    {
      "anonymous": false,
      "inputs": [
        {
          "indexed": false,
          "internalType": "address",
          "name": "_quote",
          "type": "address"
        }
      ],
      "name": "getQuoteEvent",
      "type": "event"
    },
    {
      "inputs": [
        {
          "internalType": "address",
          "name": "_adapter",
          "type": "address"
        },
        {
          "internalType": "address",
          "name": "_module",
          "type": "address"
        }
      ],
      "name": "addAdapter",
      "outputs": [],
      "stateMutability": "nonpayable",
      "type": "function"
    },
    {
      "inputs": [
        {
          "internalType": "address",
          "name": "_asset",
          "type": "address"
        }
      ],
      "name": "addAsset",
      "outputs": [],
      "stateMutability": "nonpayable",
      "type": "function"
    },
    {
      "inputs": [
        {
          "internalType": "address",
          "name": "_token",
          "type": "address"
        },
        {
          "internalType": "uint256",
          "name": "_amount",
          "type": "uint256"
        }
      ],
      "name": "deposit",
      "outputs": [],
      "stateMutability": "nonpayable",
      "type": "function"
    },
    {
      "inputs": [],
      "name": "factory",
      "outputs": [
        {
          "internalType": "contract IRainshowerFactory",
          "name": "",
          "type": "address"
        }
      ],
      "stateMutability": "view",
      "type": "function"
    },
    {
      "inputs": [
        {
          "internalType": "address",
          "name": "_module",
          "type": "address"
        },
        {
          "internalType": "uint64",
          "name": "_expiry",
          "type": "uint64"
        },
        {
          "internalType": "bytes",
          "name": "_borrowData",
          "type": "bytes"
        }
      ],
      "name": "getQuote",
      "outputs": [
        {
          "internalType": "address",
          "name": "_res",
          "type": "address"
        }
      ],
      "stateMutability": "nonpayable",
      "type": "function"
    },
    {
      "inputs": [],
      "name": "governanceContract",
      "outputs": [
        {
          "internalType": "address",
          "name": "",
          "type": "address"
        }
      ],
      "stateMutability": "view",
      "type": "function"
    },
    {
      "inputs": [],
      "name": "riskController",
      "outputs": [
        {
          "internalType": "contract IRiskController",
          "name": "",
          "type": "address"
        }
      ],
      "stateMutability": "view",
      "type": "function"
    },
    {
      "inputs": [
        {
          "internalType": "address",
          "name": "_token",
          "type": "address"
        },
        {
          "internalType": "uint256",
          "name": "_amount",
          "type": "uint256"
        }
      ],
      "name": "withdraw",
      "outputs": [],
      "stateMutability": "nonpayable",
      "type": "function"
    }
  ],
  "bytecode": "0x60806040523480156200001157600080fd5b50604051620037ae380380620037ae833981810160405281019062000037919062000118565b816000806101000a81548173ffffffffffffffffffffffffffffffffffffffff021916908373ffffffffffffffffffffffffffffffffffffffff16021790555033600260006101000a81548173ffffffffffffffffffffffffffffffffffffffff021916908373ffffffffffffffffffffffffffffffffffffffff16021790555080600160006101000a81548173ffffffffffffffffffffffffffffffffffffffff021916908373ffffffffffffffffffffffffffffffffffffffff1602179055505050620001a7565b60008151905062000112816200018d565b92915050565b600080604083850312156200012c57600080fd5b60006200013c8582860162000101565b92505060206200014f8582860162000101565b9150509250929050565b600062000166826200016d565b9050919050565b600073ffffffffffffffffffffffffffffffffffffffff82169050919050565b620001988162000159565b8114620001a457600080fd5b50565b6135f780620001b76000396000f3fe60806040523480156200001157600080fd5b5060043610620000945760003560e01c8063b172b2221162000063578063b172b222146200011b578063c45a0155146200013d578063d3526699146200015f578063f3fef3a314620001955762000094565b8063298410e5146200009957806347e7ef2414620000b95780636025a91b14620000d95780636dacd3d714620000fb575b600080fd5b620000b76004803603810190620000b1919062000ed1565b620001b5565b005b620000d76004803603810190620000d1919062000fab565b62000458565b005b620000e362000630565b604051620000f2919062001371565b60405180910390f35b62000119600480360381019062000113919062000f29565b62000654565b005b620001256200075e565b60405162000134919062001238565b60405180910390f35b6200014762000784565b60405162000156919062001354565b60405180910390f35b6200017d600480360381019062000177919062000fec565b620007aa565b6040516200018c919062001238565b60405180910390f35b620001b36004803603810190620001ad919062000fab565b62000b7f565b005b600260009054906101000a900473ffffffffffffffffffffffffffffffffffffffff1673ffffffffffffffffffffffffffffffffffffffff163373ffffffffffffffffffffffffffffffffffffffff16146200023d576040517f82b4290000000000000000000000000000000000000000000000000000000000815260040160405180910390fd5b60008173ffffffffffffffffffffffffffffffffffffffff166306fdde036040518163ffffffff1660e01b815260040160006040518083038186803b1580156200028657600080fd5b505afa1580156200029b573d6000803e3d6000fd5b505050506040513d6000823e3d601f19601f82011682018060405250810190620002c6919062001087565b604051602001620002d8919062001212565b604051602081830303815290604052905060008273ffffffffffffffffffffffffffffffffffffffff166395d89b416040518163ffffffff1660e01b815260040160006040518083038186803b1580156200033257600080fd5b505afa15801562000347573d6000803e3d6000fd5b505050506040513d6000823e3d601f19601f8201168201806040525081019062000372919062001087565b60405160200162000384919062001212565b604051602081830303815290604052905060008282604051620003a79062000d55565b620003b49291906200138e565b604051809103906000f080158015620003d1573d6000803e3d6000fd5b50905080600360008673ffffffffffffffffffffffffffffffffffffffff1673ffffffffffffffffffffffffffffffffffffffff16815260200190815260200160002060006101000a81548173ffffffffffffffffffffffffffffffffffffffff021916908373ffffffffffffffffffffffffffffffffffffffff16021790555050505050565b6000600360008473ffffffffffffffffffffffffffffffffffffffff1673ffffffffffffffffffffffffffffffffffffffff16815260200190815260200160002060009054906101000a900473ffffffffffffffffffffffffffffffffffffffff169050600073ffffffffffffffffffffffffffffffffffffffff168173ffffffffffffffffffffffffffffffffffffffff16141562000524576040517ffd88bca300000000000000000000000000000000000000000000000000000000815260040160405180910390fd5b8273ffffffffffffffffffffffffffffffffffffffff166323b872dd3330856040518463ffffffff1660e01b8152600401620005639392919062001255565b602060405180830381600087803b1580156200057e57600080fd5b505af115801562000593573d6000803e3d6000fd5b505050506040513d601f19601f82011682018060405250810190620005b991906200105b565b508073ffffffffffffffffffffffffffffffffffffffff166340c10f1933846040518363ffffffff1660e01b8152600401620005f7929190620012bf565b600060405180830381600087803b1580156200061257600080fd5b505af115801562000627573d6000803e3d6000fd5b50505050505050565b60008054906101000a900473ffffffffffffffffffffffffffffffffffffffff1681565b600260009054906101000a900473ffffffffffffffffffffffffffffffffffffffff1673ffffffffffffffffffffffffffffffffffffffff163373ffffffffffffffffffffffffffffffffffffffff1614620006dc576040517f82b4290000000000000000000000000000000000000000000000000000000000815260040160405180910390fd5b81600460008373ffffffffffffffffffffffffffffffffffffffff1673ffffffffffffffffffffffffffffffffffffffff16815260200190815260200160002060006101000a81548173ffffffffffffffffffffffffffffffffffffffff021916908373ffffffffffffffffffffffffffffffffffffffff1602179055505050565b600260009054906101000a900473ffffffffffffffffffffffffffffffffffffffff1681565b600160009054906101000a900473ffffffffffffffffffffffffffffffffffffffff1681565b600080600460008673ffffffffffffffffffffffffffffffffffffffff1673ffffffffffffffffffffffffffffffffffffffff16815260200190815260200160002060009054906101000a900473ffffffffffffffffffffffffffffffffffffffff1690506000808273ffffffffffffffffffffffffffffffffffffffff1663e5c5e9a3866040518263ffffffff1660e01b81526004016200084d919062001330565b6040805180830381600087803b1580156200086757600080fd5b505af11580156200087c573d6000803e3d6000fd5b505050506040513d601f19601f82011682018060405250810190620008a2919062000f6a565b9150915060008054906101000a900473ffffffffffffffffffffffffffffffffffffffff1673ffffffffffffffffffffffffffffffffffffffff1663d21cccbe60006040518263ffffffff1660e01b815260040162000902919062001238565b60206040518083038186803b1580156200091b57600080fd5b505afa15801562000930573d6000803e3d6000fd5b505050506040513d601f19601f820116820180604052508101906200095691906200105b565b6200098d576040517f5f429ba500000000000000000000000000000000000000000000000000000000815260040160405180910390fd5b600160009054906101000a900473ffffffffffffffffffffffffffffffffffffffff1673ffffffffffffffffffffffffffffffffffffffff16635d8094068888886040518463ffffffff1660e01b8152600401620009ee93929190620012ec565b602060405180830381600087803b15801562000a0957600080fd5b505af115801562000a1e573d6000803e3d6000fd5b505050506040513d601f19601f8201168201806040525081019062000a44919062000efd565b93508173ffffffffffffffffffffffffffffffffffffffff1663095ea7b385836040518363ffffffff1660e01b815260040162000a8392919062001292565b602060405180830381600087803b15801562000a9e57600080fd5b505af115801562000ab3573d6000803e3d6000fd5b505050506040513d601f19601f8201168201806040525081019062000ad991906200105b565b508373ffffffffffffffffffffffffffffffffffffffff16639b5b445e6040518163ffffffff1660e01b8152600401600060405180830381600087803b15801562000b2357600080fd5b505af115801562000b38573d6000803e3d6000fd5b505050507ffc1408eb1e7a7e1fb2a3c60016fef9b7dd2bc6babb860d871c20c92db1f24c768460405162000b6d919062001238565b60405180910390a15050509392505050565b6000600360008473ffffffffffffffffffffffffffffffffffffffff1673ffffffffffffffffffffffffffffffffffffffff16815260200190815260200160002060009054906101000a900473ffffffffffffffffffffffffffffffffffffffff169050600073ffffffffffffffffffffffffffffffffffffffff168173ffffffffffffffffffffffffffffffffffffffff16141562000c4b576040517ffd88bca300000000000000000000000000000000000000000000000000000000815260040160405180910390fd5b8073ffffffffffffffffffffffffffffffffffffffff16639dc29fac33846040518363ffffffff1660e01b815260040162000c88929190620012bf565b600060405180830381600087803b15801562000ca357600080fd5b505af115801562000cb8573d6000803e3d6000fd5b505050508273ffffffffffffffffffffffffffffffffffffffff1663a9059cbb33846040518363ffffffff1660e01b815260040162000cf9929190620012bf565b602060405180830381600087803b15801562000d1457600080fd5b505af115801562000d29573d6000803e3d6000fd5b505050506040513d601f19601f8201168201806040525081019062000d4f91906200105b565b50505050565b611edc80620016e683390190565b600062000d7a62000d7484620013f2565b620013c9565b90508281526020810184848401111562000d9357600080fd5b62000da08482856200157f565b509392505050565b600062000dbf62000db98462001428565b620013c9565b90508281526020810184848401111562000dd857600080fd5b62000de58482856200158e565b509392505050565b60008135905062000dfe8162001663565b92915050565b60008151905062000e158162001663565b92915050565b60008151905062000e2c816200167d565b92915050565b600082601f83011262000e4457600080fd5b813562000e5684826020860162000d63565b91505092915050565b600082601f83011262000e7157600080fd5b815162000e8384826020860162000da8565b91505092915050565b60008151905062000e9d8162001697565b92915050565b60008135905062000eb481620016b1565b92915050565b60008135905062000ecb81620016cb565b92915050565b60006020828403121562000ee457600080fd5b600062000ef48482850162000ded565b91505092915050565b60006020828403121562000f1057600080fd5b600062000f208482850162000e04565b91505092915050565b6000806040838503121562000f3d57600080fd5b600062000f4d8582860162000ded565b925050602062000f608582860162000ded565b9150509250929050565b6000806040838503121562000f7e57600080fd5b600062000f8e8582860162000e04565b925050602062000fa18582860162000e8c565b9150509250929050565b6000806040838503121562000fbf57600080fd5b600062000fcf8582860162000ded565b925050602062000fe28582860162000ea3565b9150509250929050565b6000806000606084860312156200100257600080fd5b6000620010128682870162000ded565b9350506020620010258682870162000eba565b925050604084013567ffffffffffffffff8111156200104357600080fd5b620010518682870162000e32565b9150509250925092565b6000602082840312156200106e57600080fd5b60006200107e8482850162000e1b565b91505092915050565b6000602082840312156200109a57600080fd5b600082015167ffffffffffffffff811115620010b557600080fd5b620010c38482850162000e5f565b91505092915050565b620010d781620014a1565b82525050565b6000620010ea826200145e565b620010f6818562001474565b9350620011088185602086016200158e565b620011138162001629565b840191505092915050565b62001129816200151b565b82525050565b6200113a8162001543565b82525050565b60006200114d8262001469565b62001159818562001485565b93506200116b8185602086016200158e565b620011768162001629565b840191505092915050565b60006200118e8262001469565b6200119a818562001496565b9350620011ac8185602086016200158e565b80840191505092915050565b6000620011c760018362001496565b9150620011d4826200163a565b600182019050919050565b620011ea816200156b565b82525050565b620011fb81620014fd565b82525050565b6200120c8162001507565b82525050565b60006200121f82620011b8565b91506200122d828462001181565b915081905092915050565b60006020820190506200124f6000830184620010cc565b92915050565b60006060820190506200126c6000830186620010cc565b6200127b6020830185620010cc565b6200128a6040830184620011f0565b949350505050565b6000604082019050620012a96000830185620010cc565b620012b86020830184620011df565b9392505050565b6000604082019050620012d66000830185620010cc565b620012e56020830184620011f0565b9392505050565b6000606082019050620013036000830186620010cc565b62001312602083018562001201565b8181036040830152620013268184620010dd565b9050949350505050565b600060208201905081810360008301526200134c8184620010dd565b905092915050565b60006020820190506200136b60008301846200111e565b92915050565b60006020820190506200138860008301846200112f565b92915050565b60006040820190508181036000830152620013aa818562001140565b90508181036020830152620013c0818462001140565b90509392505050565b6000620013d5620013e8565b9050620013e38282620015c4565b919050565b6000604051905090565b600067ffffffffffffffff82111562001410576200140f620015fa565b5b6200141b8262001629565b9050602081019050919050565b600067ffffffffffffffff821115620014465762001445620015fa565b5b620014518262001629565b9050602081019050919050565b600081519050919050565b600081519050919050565b600082825260208201905092915050565b600082825260208201905092915050565b600081905092915050565b6000620014ae82620014dd565b9050919050565b60008115159050919050565b60006fffffffffffffffffffffffffffffffff82169050919050565b600073ffffffffffffffffffffffffffffffffffffffff82169050919050565b6000819050919050565b600067ffffffffffffffff82169050919050565b600062001528826200152f565b9050919050565b60006200153c82620014dd565b9050919050565b6000620015508262001557565b9050919050565b60006200156482620014dd565b9050919050565b60006200157882620014c1565b9050919050565b82818337600083830152505050565b60005b83811015620015ae57808201518184015260208101905062001591565b83811115620015be576000848401525b50505050565b620015cf8262001629565b810181811067ffffffffffffffff82111715620015f157620015f0620015fa565b5b80604052505050565b7f4e487b7100000000000000000000000000000000000000000000000000000000600052604160045260246000fd5b6000601f19601f8301169050919050565b7f7200000000000000000000000000000000000000000000000000000000000000600082015250565b6200166e81620014a1565b81146200167a57600080fd5b50565b6200168881620014b5565b81146200169457600080fd5b50565b620016a281620014c1565b8114620016ae57600080fd5b50565b620016bc81620014fd565b8114620016c857600080fd5b50565b620016d68162001507565b8114620016e257600080fd5b5056fe60e06040523480156200001157600080fd5b5060405162001edc38038062001edc83398181016040528101906200003791906200029b565b8181601282600090805190602001906200005392919062000179565b5081600190805190602001906200006c92919062000179565b508060ff1660808160ff1660f81b815250504660a0818152505062000096620000e960201b60201c565b60c0818152505050505033600660006101000a81548173ffffffffffffffffffffffffffffffffffffffff021916908373ffffffffffffffffffffffffffffffffffffffff16021790555050506200061a565b60007f8b73c3c69bb8fe3d512ecc4cf759cc79239f7b179b0ffacaa9a75d522b39400f60006040516200011d9190620003cc565b60405180910390207fc89efdaa54c0f20c7adf612882df0950f5a951637e0307cdcb4c672f298b8bc646306040516020016200015e959493929190620003e5565b60405160208183030381529060405280519060200120905090565b82805462000187906200053f565b90600052602060002090601f016020900481019282620001ab5760008555620001f7565b82601f10620001c657805160ff1916838001178555620001f7565b82800160010185558215620001f7579182015b82811115620001f6578251825591602001919060010190620001d9565b5b5090506200020691906200020a565b5090565b5b80821115620002255760008160009055506001016200020b565b5090565b6000620002406200023a846200046b565b62000442565b9050828152602081018484840111156200025957600080fd5b6200026684828562000509565b509392505050565b600082601f8301126200028057600080fd5b81516200029284826020860162000229565b91505092915050565b60008060408385031215620002af57600080fd5b600083015167ffffffffffffffff811115620002ca57600080fd5b620002d8858286016200026e565b925050602083015167ffffffffffffffff811115620002f657600080fd5b62000304858286016200026e565b9150509250929050565b6200031981620004c1565b82525050565b6200032a81620004d5565b82525050565b600081546200033f816200053f565b6200034b8186620004b6565b945060018216600081146200036957600181146200037b57620003b2565b60ff19831686528186019350620003b2565b6200038685620004a1565b60005b83811015620003aa5781548189015260018201915060208101905062000389565b838801955050505b50505092915050565b620003c681620004ff565b82525050565b6000620003da828462000330565b915081905092915050565b600060a082019050620003fc60008301886200031f565b6200040b60208301876200031f565b6200041a60408301866200031f565b620004296060830185620003bb565b6200043860808301846200030e565b9695505050505050565b60006200044e62000461565b90506200045c828262000575565b919050565b6000604051905090565b600067ffffffffffffffff821115620004895762000488620005da565b5b620004948262000609565b9050602081019050919050565b60008190508160005260206000209050919050565b600081905092915050565b6000620004ce82620004df565b9050919050565b6000819050919050565b600073ffffffffffffffffffffffffffffffffffffffff82169050919050565b6000819050919050565b60005b83811015620005295780820151818401526020810190506200050c565b8381111562000539576000848401525b50505050565b600060028204905060018216806200055857607f821691505b602082108114156200056f576200056e620005ab565b5b50919050565b620005808262000609565b810181811067ffffffffffffffff82111715620005a257620005a1620005da565b5b80604052505050565b7f4e487b7100000000000000000000000000000000000000000000000000000000600052602260045260246000fd5b7f4e487b7100000000000000000000000000000000000000000000000000000000600052604160045260246000fd5b6000601f19601f8301169050919050565b60805160f81c60a05160c05161188f6200064d600039600061074e0152600061071a015260006106f4015261188f6000f3fe608060405234801561001057600080fd5b50600436106100f55760003560e01c80635aa6e675116100975780639dc29fac116100665780639dc29fac1461028a578063a9059cbb146102a6578063d505accf146102d6578063dd62ed3e146102f2576100f5565b80635aa6e675146101ee57806370a082311461020c5780637ecebe001461023c57806395d89b411461026c576100f5565b806323b872dd116100d357806323b872dd14610166578063313ce567146101965780633644e515146101b457806340c10f19146101d2576100f5565b806306fdde03146100fa578063095ea7b31461011857806318160ddd14610148575b600080fd5b610102610322565b60405161010f91906114dc565b60405180910390f35b610132600480360381019061012d9190611185565b6103b0565b60405161013f91906113ad565b60405180910390f35b6101506104a2565b60405161015d919061153e565b60405180910390f35b610180600480360381019061017b9190611098565b6104a8565b60405161018d91906113ad565b60405180910390f35b61019e6106f2565b6040516101ab9190611559565b60405180910390f35b6101bc610716565b6040516101c991906113c8565b60405180910390f35b6101ec60048036038101906101e79190611185565b610773565b005b6101f6610808565b6040516102039190611392565b60405180910390f35b61022660048036038101906102219190611033565b61082e565b604051610233919061153e565b60405180910390f35b61025660048036038101906102519190611033565b610846565b604051610263919061153e565b60405180910390f35b61027461085e565b60405161028191906114dc565b60405180910390f35b6102a4600480360381019061029f9190611185565b6108ec565b005b6102c060048036038101906102bb9190611185565b610981565b6040516102cd91906113ad565b60405180910390f35b6102f060048036038101906102eb91906110e7565b610a95565b005b61030c6004803603810190610307919061105c565b610d8e565b604051610319919061153e565b60405180910390f35b6000805461032f906116d7565b80601f016020809104026020016040519081016040528092919081815260200182805461035b906116d7565b80156103a85780601f1061037d576101008083540402835291602001916103a8565b820191906000526020600020905b81548152906001019060200180831161038b57829003601f168201915b505050505081565b600081600460003373ffffffffffffffffffffffffffffffffffffffff1673ffffffffffffffffffffffffffffffffffffffff16815260200190815260200160002060008573ffffffffffffffffffffffffffffffffffffffff1673ffffffffffffffffffffffffffffffffffffffff168152602001908152602001600020819055508273ffffffffffffffffffffffffffffffffffffffff163373ffffffffffffffffffffffffffffffffffffffff167f8c5be1e5ebec7d5bd14f71427d1e84f3dd0314c0f7b2291e5b200ac8c7c3b92584604051610490919061153e565b60405180910390a36001905092915050565b60025481565b600080600460008673ffffffffffffffffffffffffffffffffffffffff1673ffffffffffffffffffffffffffffffffffffffff16815260200190815260200160002060003373ffffffffffffffffffffffffffffffffffffffff1673ffffffffffffffffffffffffffffffffffffffff1681526020019081526020016000205490507fffffffffffffffffffffffffffffffffffffffffffffffffffffffffffffffff81146105de57828161055d9190611611565b600460008773ffffffffffffffffffffffffffffffffffffffff1673ffffffffffffffffffffffffffffffffffffffff16815260200190815260200160002060003373ffffffffffffffffffffffffffffffffffffffff1673ffffffffffffffffffffffffffffffffffffffff168152602001908152602001600020819055505b82600360008773ffffffffffffffffffffffffffffffffffffffff1673ffffffffffffffffffffffffffffffffffffffff168152602001908152602001600020600082825461062d9190611611565b9250508190555082600360008673ffffffffffffffffffffffffffffffffffffffff1673ffffffffffffffffffffffffffffffffffffffff168152602001908152602001600020600082825401925050819055508373ffffffffffffffffffffffffffffffffffffffff168573ffffffffffffffffffffffffffffffffffffffff167fddf252ad1be2c89b69c2b068fc378daa952ba7f163c4a11628f55a4df523b3ef856040516106de919061153e565b60405180910390a360019150509392505050565b7f000000000000000000000000000000000000000000000000000000000000000081565b60007f0000000000000000000000000000000000000000000000000000000000000000461461074c57610747610db3565b61076e565b7f00000000000000000000000000000000000000000000000000000000000000005b905090565b600660009054906101000a900473ffffffffffffffffffffffffffffffffffffffff1673ffffffffffffffffffffffffffffffffffffffff163373ffffffffffffffffffffffffffffffffffffffff16146107fa576040517f82b4290000000000000000000000000000000000000000000000000000000000815260040160405180910390fd5b6108048282610e3f565b5050565b600660009054906101000a900473ffffffffffffffffffffffffffffffffffffffff1681565b60036020528060005260406000206000915090505481565b60056020528060005260406000206000915090505481565b6001805461086b906116d7565b80601f0160208091040260200160405190810160405280929190818152602001828054610897906116d7565b80156108e45780601f106108b9576101008083540402835291602001916108e4565b820191906000526020600020905b8154815290600101906020018083116108c757829003601f168201915b505050505081565b600660009054906101000a900473ffffffffffffffffffffffffffffffffffffffff1673ffffffffffffffffffffffffffffffffffffffff163373ffffffffffffffffffffffffffffffffffffffff1614610973576040517f82b4290000000000000000000000000000000000000000000000000000000000815260040160405180910390fd5b61097d8282610f0f565b5050565b600081600360003373ffffffffffffffffffffffffffffffffffffffff1673ffffffffffffffffffffffffffffffffffffffff16815260200190815260200160002060008282546109d29190611611565b9250508190555081600360008573ffffffffffffffffffffffffffffffffffffffff1673ffffffffffffffffffffffffffffffffffffffff168152602001908152602001600020600082825401925050819055508273ffffffffffffffffffffffffffffffffffffffff163373ffffffffffffffffffffffffffffffffffffffff167fddf252ad1be2c89b69c2b068fc378daa952ba7f163c4a11628f55a4df523b3ef84604051610a83919061153e565b60405180910390a36001905092915050565b42841015610ad8576040517f08c379a0000000000000000000000000000000000000000000000000000000008152600401610acf9061151e565b60405180910390fd5b60006001610ae4610716565b7f6e71edae12b1b97f4d1f60370fef10105fa2faae0126114a169c64845d6126c98a8a8a600560008f73ffffffffffffffffffffffffffffffffffffffff1673ffffffffffffffffffffffffffffffffffffffff1681526020019081526020016000206000815480929190600101919050558b604051602001610b6c969594939291906113e3565b60405160208183030381529060405280519060200120604051602001610b9392919061135b565b6040516020818303038152906040528051906020012085858560405160008152602001604052604051610bc99493929190611497565b6020604051602081039080840390855afa158015610beb573d6000803e3d6000fd5b505050602060405103519050600073ffffffffffffffffffffffffffffffffffffffff168173ffffffffffffffffffffffffffffffffffffffff1614158015610c5f57508773ffffffffffffffffffffffffffffffffffffffff168173ffffffffffffffffffffffffffffffffffffffff16145b610c9e576040517f08c379a0000000000000000000000000000000000000000000000000000000008152600401610c95906114fe565b60405180910390fd5b85600460008373ffffffffffffffffffffffffffffffffffffffff1673ffffffffffffffffffffffffffffffffffffffff16815260200190815260200160002060008973ffffffffffffffffffffffffffffffffffffffff1673ffffffffffffffffffffffffffffffffffffffff16815260200190815260200160002081905550508573ffffffffffffffffffffffffffffffffffffffff168773ffffffffffffffffffffffffffffffffffffffff167f8c5be1e5ebec7d5bd14f71427d1e84f3dd0314c0f7b2291e5b200ac8c7c3b92587604051610d7d919061153e565b60405180910390a350505050505050565b6004602052816000526040600020602052806000526040600020600091509150505481565b60007f8b73c3c69bb8fe3d512ecc4cf759cc79239f7b179b0ffacaa9a75d522b39400f6000604051610de59190611344565b60405180910390207fc89efdaa54c0f20c7adf612882df0950f5a951637e0307cdcb4c672f298b8bc64630604051602001610e24959493929190611444565b60405160208183030381529060405280519060200120905090565b8060026000828254610e5191906115bb565b9250508190555080600360008473ffffffffffffffffffffffffffffffffffffffff1673ffffffffffffffffffffffffffffffffffffffff168152602001908152602001600020600082825401925050819055508173ffffffffffffffffffffffffffffffffffffffff16600073ffffffffffffffffffffffffffffffffffffffff167fddf252ad1be2c89b69c2b068fc378daa952ba7f163c4a11628f55a4df523b3ef83604051610f03919061153e565b60405180910390a35050565b80600360008473ffffffffffffffffffffffffffffffffffffffff1673ffffffffffffffffffffffffffffffffffffffff1681526020019081526020016000206000828254610f5e9190611611565b9250508190555080600260008282540392505081905550600073ffffffffffffffffffffffffffffffffffffffff168273ffffffffffffffffffffffffffffffffffffffff167fddf252ad1be2c89b69c2b068fc378daa952ba7f163c4a11628f55a4df523b3ef83604051610fd3919061153e565b60405180910390a35050565b600081359050610fee816117fd565b92915050565b60008135905061100381611814565b92915050565b6000813590506110188161182b565b92915050565b60008135905061102d81611842565b92915050565b60006020828403121561104557600080fd5b600061105384828501610fdf565b91505092915050565b6000806040838503121561106f57600080fd5b600061107d85828601610fdf565b925050602061108e85828601610fdf565b9150509250929050565b6000806000606084860312156110ad57600080fd5b60006110bb86828701610fdf565b93505060206110cc86828701610fdf565b92505060406110dd86828701611009565b9150509250925092565b600080600080600080600060e0888a03121561110257600080fd5b60006111108a828b01610fdf565b97505060206111218a828b01610fdf565b96505060406111328a828b01611009565b95505060606111438a828b01611009565b94505060806111548a828b0161101e565b93505060a06111658a828b01610ff4565b92505060c06111768a828b01610ff4565b91505092959891949750929550565b6000806040838503121561119857600080fd5b60006111a685828601610fdf565b92505060206111b785828601611009565b9150509250929050565b6111ca81611645565b82525050565b6111d981611657565b82525050565b6111e881611663565b82525050565b6111ff6111fa82611663565b611709565b82525050565b60008154611212816116d7565b61121c8186611594565b9450600182166000811461123757600181146112485761127b565b60ff1983168652818601935061127b565b61125185611574565b60005b8381101561127357815481890152600182019150602081019050611254565b838801955050505b50505092915050565b600061128f82611589565b611299818561159f565b93506112a98185602086016116a4565b6112b281611771565b840191505092915050565b60006112ca6002836115b0565b91506112d582611782565b600282019050919050565b60006112ed600e8361159f565b91506112f8826117ab565b602082019050919050565b600061131060178361159f565b915061131b826117d4565b602082019050919050565b61132f8161168d565b82525050565b61133e81611697565b82525050565b60006113508284611205565b915081905092915050565b6000611366826112bd565b915061137282856111ee565b60208201915061138282846111ee565b6020820191508190509392505050565b60006020820190506113a760008301846111c1565b92915050565b60006020820190506113c260008301846111d0565b92915050565b60006020820190506113dd60008301846111df565b92915050565b600060c0820190506113f860008301896111df565b61140560208301886111c1565b61141260408301876111c1565b61141f6060830186611326565b61142c6080830185611326565b61143960a0830184611326565b979650505050505050565b600060a08201905061145960008301886111df565b61146660208301876111df565b61147360408301866111df565b6114806060830185611326565b61148d60808301846111c1565b9695505050505050565b60006080820190506114ac60008301876111df565b6114b96020830186611335565b6114c660408301856111df565b6114d360608301846111df565b95945050505050565b600060208201905081810360008301526114f68184611284565b905092915050565b60006020820190508181036000830152611517816112e0565b9050919050565b6000602082019050818103600083015261153781611303565b9050919050565b60006020820190506115536000830184611326565b92915050565b600060208201905061156e6000830184611335565b92915050565b60008190508160005260206000209050919050565b600081519050919050565b600081905092915050565b600082825260208201905092915050565b600081905092915050565b60006115c68261168d565b91506115d18361168d565b9250827fffffffffffffffffffffffffffffffffffffffffffffffffffffffffffffffff0382111561160657611605611713565b5b828201905092915050565b600061161c8261168d565b91506116278361168d565b92508282101561163a57611639611713565b5b828203905092915050565b60006116508261166d565b9050919050565b60008115159050919050565b6000819050919050565b600073ffffffffffffffffffffffffffffffffffffffff82169050919050565b6000819050919050565b600060ff82169050919050565b60005b838110156116c25780820151818401526020810190506116a7565b838111156116d1576000848401525b50505050565b600060028204905060018216806116ef57607f821691505b6020821081141561170357611702611742565b5b50919050565b6000819050919050565b7f4e487b7100000000000000000000000000000000000000000000000000000000600052601160045260246000fd5b7f4e487b7100000000000000000000000000000000000000000000000000000000600052602260045260246000fd5b6000601f19601f8301169050919050565b7f1901000000000000000000000000000000000000000000000000000000000000600082015250565b7f494e56414c49445f5349474e4552000000000000000000000000000000000000600082015250565b7f5045524d49545f444541444c494e455f45585049524544000000000000000000600082015250565b61180681611645565b811461181157600080fd5b50565b61181d81611663565b811461182857600080fd5b50565b6118348161168d565b811461183f57600080fd5b50565b61184b81611697565b811461185657600080fd5b5056fea264697066735822122011169d2551ad698f0837b662150b6a8d3fc9c147a40dac2b38fb5c618a58dbe964736f6c63430008040033a2646970667358221220e78eef5be264021ee68050f68c638a745841017b2b5b617ec49b5d37853bbe3a64736f6c63430008040033",
  "linkReferences": {},
  "deployedLinkReferences": {}
}